S00A000056322E7372656392
S113000010C022C021C020C01FC01EC01DC01CC003
S11300101BC01AC019C018C017C016C015C014C020
S113002013C011241FBECFE5D1E0DEBFCDBF10E069
S1130030A0E6B0E0E6E8F0E002C005900D92A2363A
S1130040B107D9F711D01DC0DBCF07C0E9EFF0E04D
S11300503197F1F700C0000001970097B9F70895B0
S11300608FEF8ABB1BBA0895FBDF809160009091EB
S11300706100EBDF9BB381E089278BBB80E090E0DC
S10900800895F894FFCF7F
S1050086E80389
S9030000FC
